:020000040800F2
:10000000783A002029020008B92E00084727000886
:10001000C92D000815070008D539000800000000A8
:100020000000000000000000000000009101000836
:100030009307000800000000D5010008EB3000081D
:10004000430200084302000843020008430200087C
:10005000430200084302000843020008430200086C
:100060004302000843020008430200085107000849
:1000700043020008430200085D070008430200082D
:10008000430200084302000843020008430200083C
:10009000430200084302000843020008430200082C
:1000A000430200084302000843020008430200081C
:1000B000430200084302000843020008430200080C
:1000C00043020008430200084302000843020008FC
:1000D00043020008C939000843020008430200082F
:1000E00043020008430200084302000800F002F83F
:1000F00000F03FF80AA090E8000C82448344AAF183
:100100000107DA4501D100F034F8AFF2090EBAE880
:100110000F0013F0010F18BFFB1A43F0010318473B
:1001200078CA000098CA0000103A24BF78C878C185
:10013000FAD8520724BF30C830C144BF04680C60ED
:10014000704700000023002400250026103A28BF35
:1001500078C1FBD8520728BF30C148BF0B60704739
:10016000642900F0C980002070471FB51FBD10B57D
:1001700010BD00F0F2F91146FFF7F7FF03F061FF41
:1001800000F010FA03B4FFF7F2FF03BC00F018FA16
:10019000224B19680868B0E8F00F80F30988BFF3B4
:1001A0006F8F4FF0000080F311884EF00D0E7047F6
:1001B0000000000006480068006880F3088862B606
:1001C00061B6BFF34F8FBFF36F8F00DF00BF00BF7B
:1001D00008ED00E0EFF30980BFF36F8F0F4B1A6853
:1001E00020E9F00F106008B54FF0500080F311883F
:1001F000BFF34F8FBFF36F8F05F098FA4FF00000F9
:1002000080F31188BDE8084019680868B0E8F00F6D
:1002100080F30988BFF36F8F704700BF3400002060
:10022000EFF3058070470000094880470948004700
:10023000FEE7FEE7FEE7FEE7FEE7FEE7FEE7FEE796
:10024000FEE7FEE704480549054A064B70470000F3
:100250007B310008ED00000878340020783A002057
:1002600078360020783600200FB41CB5074B06AA5C
:100270007B4469460090059800F057F900206946D4
:1002800000F066F91CBC5DF814FB0000DD02000004
:100290002DE9F0410E460446002020622046E16828
:1002A000884730B3252805D0D4E901219047206A3A
:1002B000401CF2E7E168204600278847050018D077
:1002C000A5F14100192802D820354FF400673246C5
:1002D000294620462760FFF743FF40B1012804D09C
:1002E000F61D26F007060836D8E7361DD6E728465D
:1002F000DAE7206ABDE8F0812DE9F04106460024E6
:1003000010687529314616A510D0AFF3008000287B
:1003100002DA404213A507E031688A0701D512A529
:1003200002E0490704D511A5012401E0AFF30080E4
:1003300000210A2206F1240709E0B0FBF2FCB0FB21
:10034000F2F302FB1C00303078541846491C002898
:10035000F3D123462A463046BDE8F04100F086B886
:10036000000000002D0000002B0000002000000015
:1003700010B5203AC0F00B80B1E81850203AA0E840
:100380001850B1E81850A0E81850BFF4F5AF5FEA74
:10039000027C24BFB1E81850A0E8185044BF18C927
:1003A00018C0BDE810405FEA827C24BF51F8043BCE
:1003B00040F8043B08BF7047D20728BF31F8023B22
:1003C00048BF11F8012B28BF20F8023B48BF00F8B6
:1003D000012B70474FF000020429C0F0128010F08A
:1003E000030C00F01B80CCF1040CBCF1020F18BF11
:1003F00000F8012BA8BF20F8022BA1EB0C0100F0A4
:100400000DB85FEAC17C24BF00F8012B00F8012B76
:1004100048BF00F8012B70474FF0000200B51346AB
:1004200094469646203922BFA0E80C50A0E80C5014
:10043000B1F12001BFF4F7AF090728BFA0E80C50C5
:1004400048BF0CC05DF804EB890028BF40F8042BBE
:1004500008BF704748BF20F8022B11F0804F18BF2B
:1004600000F8012B70477047704770472DE9F0473F
:100470000D4699469246044600F124080168880614
:1004800004D5E06921F01001216000E00120A842BC
:1004900001DD471B00E00027A1697A1902EB090082
:1004A000081AA0612078C00602D42046AFF300806D
:1004B000002608E0D4E901211AF806009047206AD6
:1004C000401C761C20624E45F4DB2078C0060AD51D
:1004D0002046AFF3008006E0D4E9012130209047A8
:1004E000206A401C2062381EA7F10107F4DC07E0F7
:1004F000D4E9012118F805009047206A401C2062C9
:10050000281EA5F10105F3DC2046AFF3008020781A
:10051000000602D50220BDE8F0870120FBE70000BD
:1005200001694A1C02610878704700B58FB0CDE9B7
:1005300001310021059105497944CDE903101146A7
:100540006846FFF7A5FE0FB000BD0000E5FFFFFF06
:100550000A6802F8010B0A607047754600F02CF833
:10056000AE4605006946534620F00700854618B0A0
:1005700020B5FFF767FEBDE820404FF000064FF0C2
:1005800000074FF000084FF0000B21F00701AC46C8
:10059000ACE8C009ACE8C009ACE8C009ACE8C009E7
:1005A0008D46704710B50446AFF300802046BDE885
:1005B0001040FFF7E7BD00000048704714340020EA
:1005C00001491820ABBEFEE726000200704700007C
:1005D00070B5044600688168C943C90717D18168AE
:1005E00021F00101816000F049FD05460AE000BFED
:1005F00000F044FD401B022804D920688068C043F5
:10060000C00706D020688068C043C007F0D0002033
:1006100070BDA06A40F01000A062E06A40F00100E6
:10062000E062012070BD10B50146406A826A12F096
:10063000500F05D0006A026BBDE810400846104715
:10064000816A41F40071816201688968C1F34241A5
:1006500007290CD1017B51B9816A21F48071816233
:10066000816AC90403D4816A41F00101816200F00A
:1006700011F910BD10B5406A816A41F040018162F4
:10068000C16A41F00401C16200F00BF910BD10B560
:10069000406A00F005F910BDF8B500260446009642
:1006A00000688168C943C9072DD0816841F0010104
:1006B0008160164816490068B0FBF1F000E0401E6A
:1006C00000900028FBD100F0D9FC054616E000BFE1
:1006D00000F0D4FC401B022810D920688068C04379
:1006E000C0070BD0A06A40F01000A062E06A40F0A2
:1006F0000100E06284F824600120F8BD2068806871
:10070000C043C007E4D10020F8BD00002C00002049
:1007100040420F00FEE7000070B506464FF6FF703E
:1007200000224AF201040FE0B35C58405FF000037E
:1007300010F0010F4FEA500000D060405B1CDBB2AC
:10074000082BF5D3521CD2B28A42EDD370BD000003
:10075000014800F073BA0000A4030020014800F033
:100760006DBA00002405002030B590F840500124F7
:10077000AC40C56B6C60046863604368102B036811
:1007800003D099600068C26030BD9A600068C160A3
:1007900030BD704772B6FEE7F8B50024009490F8BB
:1007A00024202546012A12D0012280F824204A68FC
:1007B0001F23072A0DD20668776B521E02EB8202B6
:1007C00093409F430B6893401F43776319E00220D7
:1007D000F8BD06680D2A0AD2376BD21F02EB8202DF
:1007E00093409F430B6893401F43376309E0F76AC8
:1007F0000D3A02EB820293409F430B6893401F43E4
:10080000F7620A68072306680A2A0AD3F7680A3AD1
:1008100002EB420293409F438B6893401F43F76073
:1008200008E0376902EB420293409F438B68934094
:100830001F4337610A68102A01D0112A20D1124BB8
:1008400002689A4217D193681B0219D4936843F443
:10085000000393600968102912D10C490C4A0968F9
:10086000B1FBF2F101EB8101490000E0491E00916A
:100870000029FBD104E0816A41F02001816201245A
:1008800080F824502046F8BD002401402C000020B0
:1008900040420F0001490120087070479600002077
:1008A000704770472DE9F0414FF0000704003D46C6
:1008B0007ED0A06A002628B9E66284F8246020462B
:1008C00000F07EF82046FFF783FEA16AC90600D437
:1008D00020B1A06A40F01000A06269E0A16A21F492
:1008E000885141F00201A1626268E169237B0A43F9
:1008F00047EA43010A43A1684FF48077B94209D01F
:10090000012907D05FF0000194F814C0BCF1010F79
:1009100002D00AE03946F7E7F3B1A36A43F02003B7
:10092000A362E36A43F00103E3622368D3F804C0DF
:100930002CF4694C4CEA010CC3F804C021688B68A4
:10094000DFF870C003EA0C0313438B60A168B9425F
:100950000BD0012909D00CE0DFF85CC0A3690CEBD7
:1009600043330B4343F40061DFE7218A0D05A5F50E
:1009700080152168CB6A23F470032B43CB62216876
:1009800089680E4B1940914208D1E662A16A21F0B4
:10099000020141F00101A162BDE8F081A06A20F0EE
:1009A000020040F01000A062E06A40F00100E06246
:1009B0000120F1E7FDF7E1FF00E0FFFFFE0E1FFF62
:1009C00070B586B0002605460096019602960396FD
:1009D00000681A4988422FD11949886940F400708B
:1009E0008861886900F400700490886940F0040010
:1009F00088618869694600F0040004901F20009017
:100A0000032001900F4800F03BFA104C0E48C4E957
:100A100000068020C4E9026040002061800060611F
:100A20002020A0610002E061204600F0B1F908B189
:100A3000FFF7B0FE2C62656206B070BD0024014075
:100A4000001002400008014008000240A4030020FA
:100A50002DE9F047894604463B4900683B4F0E1D8F
:100A60009046884201D0B84207D1306810F4702F08
:100A700003D001252846BDE8F08794F8240001281A
:100A80000CD0012084F824002046FFF705FE050065
:100A90004FF0000004D084F82400EBE70220EAE7DE
:100AA000A16A40F60162914341F48071A16221681C
:100AB000B94218D1326812F4702F14D0A16A41F4EF
:100AC0008011A1623168490505D5A16A21F4005160
:100AD00041F48051A162A16AC9040AD5E16A21F0FA
:100AE0000601E16206E0A26A22F48012A26249686D
:100AF000E9E7E06284F82400216A15488862216AE7
:100B00001448C862216A1448086321686FF0020023
:100B100008602068816841F48071816021684346E3
:100B20004A464C31206A00F061F920688168C1F3BF
:100B300042410729816803D041F48011816099E71F
:100B400041F4A001FAE70000002401400028014020
:100B5000270600088F0600087506000810B590F8F3
:100B600021100022022905D00421816380F8202071
:100B7000012010BD01680B6823F00E030B600168B3
:100B80000B6823F001030B6090F84030C46B012127
:100B900001FA03F3636080F8211080F820201046EA
:100BA00010BD000010B590F821100024022903D0D8
:100BB0000421816301243DE001680A6822F00E02ED
:100BC0000A6001680A6822F001020A601A4A016894
:100BD000914201D1012121E0174A1432914201D101
:100BE00010211BE0144A2832914201D1891515E0E9
:100BF000114A3C32914201D189140FE00E4A503221
:100C0000914202D14FF4803108E00B4A64329142A4
:100C100002D14FF4801101E04FF08071064A083A8A
:100C20005160012180F82110002180F82010416BD3
:100C300001B18847204610BD080002402DE9F05F51
:100C4000C16B0C6801680B68D0F840C0042202FA3E
:100C50000CF2494DDFF824A1494E4A4FDFF828B184
:100C6000DFF828E122422CD05A072AD50A689206DA
:100C700003D40A6822F004020A600168A94201D183
:100C8000042219E0514501D1402215E0B14202D1C0
:100C90004FF4806210E0B94202D14FF480420BE081
:100CA000594502D14FF4802206E0714502D14FF43C
:100CB000800201E04FF080622F4908394A60C16A22
:100CC0003BE04FF0020808FA0CF818EA040F4FF066
:100CD00000094FF0010235D05FEA837832D50B6806
:100CE0009B0605D40B6823F00A030B6080F82120D3
:100CF0000168A94201D1022219E0514501D1202207
:100D000015E0B14202D14FF4007210E0B94202D1B5
:100D10004FF400520BE0594502D14FF4003206E087
:100D2000714502D14FF4001201E04FF000721249F8
:100D300008394A6080F82090816A00291AD0BDE8FD
:100D4000F05F0847082505FA0CF5254212D01B076D
:100D500010D50B6823F00E030B6090F84010C36BA6
:100D600002FA01F15960826380F8212080F8209016
:100D7000016BE2E7BDE8F09F080002401C00024062
:100D80003000024044000240580002406C00024023
:100D900030B528B308C8134914221944B1FBF2F145
:100DA0008900C16310498163022141771A6843F6C3
:100DB000F0718A43D0E900142143D0E902452C4365
:100DC0002143046921434469214384692143114338
:100DD000196000214163012242770177084630BD46
:100DE000012030BDF8FFFDBF0000024070B5044691
:100DF00090F82000002501280CD0012084F8200064
:100E000094F821600020012E06D084F820000225ED
:100E1000284670BD022070BD022684F82160A063C0
:100E20002068066826F0010606602046FFF79CFC55
:100E3000E06A00282068016802D041F00E0106E057
:100E400021F0040101602068016841F00A0101609D
:100E50002068016841F001010160D9E770B50446DE
:100E600000F00CF90546601C02D0044800780444E8
:100E700000F004F9401BA042FAD370BD200000200E
:100E80002DE9F84FDFF8B8910024A9F1040B2346AF
:100E90000F2709F1040AABF1040EC9E00125A540B2
:100EA0002A40AA427DD1674ED1F804C0ACEB0608B7
:100EB000B44532D014DCBCF1030F3AD009DCBCF1EC
:100EC000000F2AD0BCF1010F1CD0BCF1020F31D1B0
:100ED0001DE0BCF1110F17D0BCF1120F2AD119E09F
:100EE000B8F5881F19D006DCB8F5803F15D0B8F5E5
:100EF000801F1FD111E0B8F5001F0ED0B8F5041FF8
:100F000018D10AE0CB6815E0CB681B1D12E0CB6856
:100F100008330FE0CB680C330CE08B682BB1012B4E
:100F20004FF0080303D0456104E0042302E00561AB
:100F300000E00023FF2A01D8064601E000F1040684
:100F40004FEA840501D9A5F12005D6F8008007FAFB
:100F500005FC28EA0C0803FA05F548EA0508C6F876
:100F600000804D68ED0062D5374DAE6946F0010650
:100F7000AE61AD6924F0030605F001050095334D1F
:100F800006EB050CDCF80850A607360F07FA06F842
:100F900025EA0805DFF8B880404503D14FF0000886
:100FA00017E044E0DFF8AC80404502D14FF0010883
:100FB0000FE0DFF8A480404502D14FF0020808E0BE
:100FC000DFF89880404502D14FF0030801E04FF070
:100FD000040808FA06F848EA0508CCF808804D68C5
:100FE000D9F80060ED024D4601D5164300E0964366
:100FF0002E604D68DAF80060AD02554601D5164303
:1010000000E096432E604D68DBF80060AD035D465E
:1010100001D5164300E096432E604D68DEF800606F
:10102000ED03754601D5164300E096432E60641C1F
:101030000D682A46E5407FF431AFBDE8F88F000027
:10104000080401400000111000100240000001409F
:1010500000080140000C0140001001400014014054
:10106000C26821EA02030A4043EA02410161704773
:101070000AB1016170470904FBE70000014880687C
:10108000704700002000002070B5040025D094F8BF
:101090003D00002520B984F83C50204600F04EF970
:1010A000242084F83D002068016821F001010160DE
:1010B0002068016841F4004101602068016821F462
:1010C0000041016000F01CFB4D4A6168914201D86B
:1010D0004C4900E04C49884201D2012070BD4B4987
:1010E0002368B0FBF1F15E6826F03F060E435E60B8
:1010F0006368934206D94FF4967359434FF47A7359
:10110000B1FBF3F12368491C1E6A26F03F06314308
:1011100019626168914210D84900401EB0FBF1F29B
:10112000521CC2F30B02042A01D2042022E0B0FBBD
:10113000F1F0401CC0F30B001CE0A268F2B301EB1D
:10114000C10303EB0116431EB3FBF6F35B1C43F430
:1011500080431B0549D092B301EBC10202EB0111A0
:10116000401EB0FBF1F0401CC0F30B0040F4804087
:1011700040F400402168CA694CF6FF739A4310435B
:10118000C861D4E9071001432068026822F0C00258
:1011900011430160D4E9030101432068826848F2E9
:1011A000FF339A4311438160D4E905010843216864
:1011B000CA6822F0FF021043C86001E00EE016E0AA
:1011C0002068016841F0010101602564202084F855
:1011D0003D00256384F83E50002070BD01EB4106C0
:1011E000431EB3FBF6F35B1CB3E70120C2E701EB40
:1011F0004101401EB0FBF1F0401CC0F30B00B7E70B
:10120000A086010080841E0000093D0040420F00BE
:101210002DE9F84F1F4690468A460446DDF828908F
:10122000FFF72CFF054694F83D0020287FD11923B5
:10123000012240492046009501F018FB002876D194
:1012400094F83C00012872D0012084F83C0020680A
:101250000168C90703D1016841F0010101602068FC
:10126000016821F400610160212084F83D00102014
:1012700084F83E0000262664C4F824806785608DCB
:1012800020852D48E0622B464A465146204601F013
:1012900073FA90B9206841698069009036E02A4667
:1012A0004946204601F088FB50B1206C042804D147
:1012B0002068016841F4007101600120BDE8F88FE9
:1012C000606A216800780861606A401C6062618D14
:1012D000491E6185218D491E89B221852268536985
:1012E000DB435B070BD451B100781061606A401C8E
:1012F0006062608D401E6085208D401E20852A46DC
:101300004946204601F086FA0028CED1208D0028DB
:10131000C5D154F83D0B016841F4007101602020F3
:1013200004F81E09E67766770020C7E7FFE702208A
:10133000C4E70000020010000000FFFF10B586B0F7
:1013400000210091019102910391006813498842A4
:1013500022D1134CA06940F00800A061A069694641
:1013600000F0080004904FF44070009012200190AB
:10137000032003900B48FFF783FD0B48416841F0C1
:10138000E06141F002014160E06940F40010E06179
:10139000E06900F40010049006B010BD0054004055
:1013A00000100240000C014000000140024881682A
:1013B000027811448160704720000020074810B572
:1013C000016841F010010160032000F07BF80F205C
:1013D00000F006F800F024F8002010BD00200240C4
:1013E00070B50D4D04464FF47A712878B1FBF0F0DA
:1013F0000A490968B1FBF0F000F08CFD48B9102CE7
:1014000007D200222146501E00F03CF800206C60FC
:1014100070BD012070BD0000200000202C000020C5
:101420000F4808B5816941F001018161816901F0CE
:1014300001010091C16941F08051C161C069002280
:1014400000F0805000900F21901E00F01BF805481E
:10145000416821F0E06141F00071416008BD000089
:101460000010024000000140002809DB00F01F02CC
:10147000012191404009800000F1E020C0F80011F6
:1014800070470000F0B40E4B1B680C46C3F30223F8
:10149000C3F10705042D00D90425191D072901D220
:1014A000002300E0DB1E012606FA05F1491E21405B
:1014B00099409E40761E16403143F0BC02F08BBA34
:1014C0000CED00E0064900F0070208684FF6FF0344
:1014D000184040EA0220034A1043086070470000A9
:1014E0000CED00E00000FA052DE9F8430546007810
:1014F000354CC00754D0E0690026C00008D4E0692C
:1015000040F08050E061E069012600F080500090DA
:101510002E480168C90512D40168804641F48071E3
:101520000160FFF7ABFD074605E000BFFFF7A6FD32
:10153000C01B642823D8D8F80000C005F6D5206A5F
:1015400010F4407021D0A98801F4407181421CD070
:10155000206A1F49012220F440700A6000220A60BC
:101560002062C00711D0FFF789FD074641F2883895
:1015700008E000BFFFF782FDC11B414502D90320EF
:10158000BDE8F883206A8007F4D5206A696820F4F2
:101590004070084320621EB1E06920F08050E06195
:1015A0002878800705D56068A96820F44040084382
:1015B00060602878C00605D56068E96820F480007E
:1015C000084360600020DBE700100240007000402C
:1015D000400442422DE9F0470F46050061D0434EDA
:1015E000306800F00700B84209D2306820F00700E8
:1015F00038433060306800F00700B84251D12868A5
:101600003B4C810712D5400703D5606840F4E06089
:1016100060602878000703D5606840F4605060601F
:101620006068A96820F0F000084360602878C0076F
:1016300028D06868012810D02168022810D08907B6
:1016400000292EDA616821F0030101436160FFF790
:1016500015FD804641F288390DE021688903EFE7E6
:101660008901EDE7FFF70AFDA0EB0801494502D922
:101670000320BDE8F0876068696800F00C00B0EBFB
:10168000810FEFD1306800F00700B8420BD9306805
:1016900020F0070038433060306800F00700B8429F
:1016A00001D00120E5E72878400705D56068E968A2
:1016B00020F4E060084360602878000706D5606881
:1016C000296920F4605040EAC100606000F038F8F9
:1016D0006168084AC1F30311515CC84006490860BB
:1016E00006480068FFF77CFE0020C2E700200240A9
:1016F00000100240025D00082C00002024000020A1
:101700000448054900684968044AC1F30221515C54
:10171000C84070472C00002000100240125D0008F5
:101720000448054900684968044AC1F3C221515C74
:10173000C84070472C00002000100240125D0008D5
:101740000E4A51680E4801F00C03042B11D0082BEF
:101750000FD10C48C1F38343C903C05C0AD551685B
:10176000084AC1F34041921E515C054A5043B0FB08
:10177000F1F07047044948437047000000100240F0
:1017800000127A00F25C000800093D002DE9F84FD4
:10179000040070D02078C04DC00749D06868C0F3FD
:1017A0008100012807D06868C0F38100022809D1B0
:1017B0006868C00306D52868800339D560680028AA
:1017C000E7D035E06068B0F5803F0BD010B1B0F5E0
:1017D000A02F11D0286820F480302860286820F4D9
:1017E000802002E0286840F480302860606890B172
:1017F000FFF744FC06460AE0286840F48020286091
:10180000F0E700BFFFF73AFC801B642873D8286814
:101810008003F7D50CE0FFF731FC064605E000BF7A
:10182000FFF72CFC801B6428F0D828688003F7D4CD
:1018300020789A4E80074FF001094FF0000839D503
:10184000686810F00C0F07D06868C0F381000228A8
:1018500009D16868C00306D42868800714D52069B8
:10186000012808D110E02069B0B1C6F80090FFF758
:1018700005FC074605E00AE1FFF700FCC01B022853
:10188000C4D828688007F7D52868616920F0F80077
:1018900040EAC10028600DE0C6F80080FFF7EEFBCB
:1018A000074604E0FFF7EAFBC01B022823D828689C
:1018B0008007F7D4207800072CD57948A169D9B1E1
:1018C000C0F80090FFF7DAFB074604E0FFF7D6FB0D
:1018D000C01B02280FD8686A8007F7D571484FF4FB
:1018E000FA510068B0FBF1F0009000BF0098411E73
:1018F0000091FAD20EE080E0C0F80080FFF7BEFB56
:10190000074604E0FFF7BAFBC01B022875D8686AD7
:101910008007F7D42078400760D5E8690027C00029
:1019200008D4E86940F08050E861E869012700F0D8
:10193000805000905C480168C90513D40168834653
:1019400041F480710160FFF799FB824606E000BF19
:10195000FFF794FBA0EB0A0064284ED8DBF80000E8
:10196000C005F5D5E06801280AD008B1052813D0D4
:10197000286A20F001002862286A20F0040002E0B2
:10198000286A40F001002862E06841F2883B98B183
:10199000FFF774FB82460BE0286A40F004002862DF
:1019A000EEE700BFFFF76AFBA0EB0A0159455AD8E2
:1019B000286A8007F6D50CE0FFF760FB824605E059
:1019C000FFF75CFBA0EB0A0159454CD8286A800759
:1019D000F6D41FB1E86920F08050E861E06988B36F
:1019E0006968C1F38101022944D00228C6F86080E9
:1019F00004D0FFF743FB044638E034E0FFF73EFB3A
:101A0000074604E0FFF73AFBC01B02282BD82868E2
:101A10008001F7D4206AB0F5803F05D16868A168DD
:101A200020F4003008436860D4E90801084369687D
:101A300021F4741108436860C6F86090FFF71EFB3C
:101A4000044606E025E000BFFFF718FB001B022854
:101A500009D828688001F7D51BE000BFFFF70EFB0F
:101A6000001B022802D90320BDE8F88F28688001F6
:101A7000F4D40EE00128F7D06868226A00F48031BF
:101A8000914204D1616A00F47010884201D00120B3
:101A9000EAE70020E8E700000010024000004242B0
:101AA000800442422C0000200070004070B5040009
:101AB00009D0606A002540B125616561A56294F88E
:101AC000510040B10CE0012070BD6068B0F5827F2C
:101AD000F4D0E561F2E784F85050204600F040F879
:101AE000022084F851002068016821F04001016063
:101AF000A088218900F4827001F404410843A1897F
:101B000001F400610843217C01F002010843217DBA
:101B100001F001010843218B01F400710843217F8A
:101B200001F03801084394F8201001F080010843C7
:101B3000218D01F40051084321680860A069042147
:101B400001EA1040216848602068C16921F4006101
:101B5000C1616565012084F85100002070BD00005E
:101B600030B585B000240094019402940394006879
:101B70001449884223D11448816941F4805181611C
:101B8000816901F480510491816941F0040181610E
:101B900080690E4D00F004000490A0200090022007
:101BA00001900320039069462846FFF769F9402019
:101BB000CDE90004694628460294FFF761F905B0B3
:101BC00030BD00000030014000100240000801401C
:101BD0002DE9F84F044690F85100984616460F46F6
:101BE0000025012801D0022598E060684FF0040B21
:101BF000B0F5827F01D1A068F8B194F850000128B7
:101C000026D04FF0010984F85090FFF737FA82464A
:101C1000002F7FD0002E7DD084F851B00020606569
:101C2000A763A687E6872063A086E08620646064B9
:101C3000A068B0F5004F0DD016E084F851B01346FF
:101C40000A462046CDF8008000F06DF8BDE8F88F18
:101C50000220FBE72068016821F040010160206854
:101C6000016821F48041016020680168490603D4BD
:101C7000016841F040010160E068D8B13BE02068B4
:101C80008168C90709D0007BA16B0870A06B401C5C
:101C9000A063E08F401EE0870CE0FFF7EFF9A0EBB8
:101CA0000A01414503D3B8F1FF3F03D006E0B8F184
:101CB000000F03D0E08F0028E1D11FE003252BE0C7
:101CC00020688168C90709D0C068A16B0880A06B33
:101CD000801CA063E08F401EE0870CE0FFF7CEF988
:101CE000A0EB0A01414503D3B8F1FF3F03D0E5E77C
:101CF000B8F1000FE2D0E08F0028E1D15246414612
:101D0000204601F00DF908B120206065606D00E00B
:101D100000E008B1012501E084F85190002084F82A
:101D20005000284692E72DE9FF4F81B0044690F815
:101D3000500000260E9F1D4693464FF001090128D2
:101D40000FD04FF0010A84F850A0FFF797F98046B2
:101D500094F85100616801280DD0B1F5827F08D157
:101D600003E0022005B0BDE8F08FA16809B904289E
:101D700001D00226C9E00298002865D0BBF1000F0F
:101D8000FBD0002DF9D094F85100042802D0052092
:101D900084F8510000206065C4F838B0E587A58755
:101DA00002992163E586A586206460642068016845
:101DB000490603D4016841F040010160E068B0F5D4
:101DC000006F606803D0F0B3012D47D081E008B107
:101DD000012D3CD1206B21680088C860206B801CDD
:101DE0002063E08E401EE08631E02068816889072C
:101DF0000FD5E18E69B1B9F1010F0AD1216B0988C4
:101E0000C160206B801C2063E08E401EE0864FF096
:101E1000000920688168C9070CD0E18F51B1C06802
:101E2000A16B0880A06B801CA063E08F401EE08740
:101E30004FF00109FFF722F9A0EB0800B84206D3E2
:101E4000781C04D001E009E05BE003265BE0E08E53
:101E50000028CAD1E08F0028C7D140E0206B21685C
:101E600000780873206B401C2063E08E401EE086E3
:101E70002FE02068816889070FD5E18E69B1B9F13B
:101E8000010F0AD1216B09780173206B401C20637C
:101E9000E08E401EE0864FF0000920688168C90787
:101EA0000CD0E18F51B1C068A16B0870A06B401CD1
:101EB000A063E08F401EE0874FF00109FFF7DEF8D6
:101EC000A0EB0800B84202D3781C02D0BAE7002F7A
:101ED000B8D0E08E0028CCD1E08F0028C9D142468E
:101EE0003946204601F04AF818B1012620206065E5
:101EF0000BE0A06818B92068C16880680090606D28
:101F000008B1012601E084F851A0002084F85000B7
:101F1000304627E710B5401EB0F1807F01D3012085
:101F200010BD4FF0E02460610F21601701F053FDF8
:101F30000020A06107202061002010BD70B590F83E
:101F40003C20012A26D0012480F83C40022280F85F
:101F50003D2003685A689D6822F070060A68324383
:101F60005A600D4B02689A4208D0B2F1804F05D0FA
:101F70000A4B9A4202D00A4B9A4204D1496825F092
:101F800080031943916080F83D40002180F83C10A7
:101F9000084670BD022070BD002C014000040040C6
:101FA0000008004010B5040003D094F83D0010B1C3
:101FB00007E0012010BD002084F83C00204600F01E
:101FC0001FF8022084F83D00211D206801F0D6F89A
:101FD000012084F8460084F83E0084F83F0084F82D
:101FE000400084F8410084F8420084F8430084F8FB
:101FF000440084F8450084F83D00002010BD000036
:1020000008B500680649884208D10648C16941F010
:102010000201C161C06900F00200009008BD00002B
:10202000000400400010024070B5044690F83C00E7
:102030000025012817D0012684F83C60022084F88E
:102040003D002068826822F0770222F47F4282609D
:102050000868502838D00DDC20284FD005DC90B31C
:10206000102811D14AE0022070BD302846D0402807
:102070000AD13BE060282FD070280DD0B0F5805FEA
:1020800003D0B0F5005F12D0012584F83D60002038
:1020900084F83C00284670BDCB68D1E90121206856
:1020A00001F0AFF82068816841F0770109E0CB6862
:1020B000D1E90121206801F0A4F82068816841F489
:1020C00080418160E1E719E0CA684968206801F051
:1020D0004DF95021206806E0CA684968206801F07F
:1020E00056F96021206801F096F8CEE7CA68496881
:1020F000206801F03BF940212068F4E7226801469E
:102100001046F0E700B585B00021009101910291E1
:10211000039100680A49884210D10A48816941F058
:10212000080181618069694600F00800049002207E
:102130000090019003900448FEF7A2FE05B000BD98
:102140000004004000100240000C014070B504463D
:1021500090F83C0000260D4601280FD0012084F89D
:102160003C006AB1042A1DD0082A2FD00C2A3FD087
:102170000126002084F83C00304670BD022070BD6E
:10218000206801F051F82068816941F008018161FF
:102190002068816921F004018161206881692A69D0
:1021A000114311E0206801F067F82068816941F46B
:1021B000006181612068816921F48061816120680A
:1021C00081692A6941EA02218161D2E7206801F030
:1021D0007FF82068C16941F00801C1612068C169C8
:1021E00021F00401C1612068C1692A69114311E02D
:1021F000206801F099F82068C16941F40061C1616B
:102200002068C16921F48061C1612068C1692A69BF
:1022100041EA0221C161ACE710B5040003D094F893
:102220003D0010B107E0012010BD002084F83C0003
:10223000204600F01EF8022084F83D00211D206891
:1022400000F09CFF012084F8460084F83E0084F8EA
:102250003F0084F8400084F8410084F8420084F88C
:10226000430084F8440084F8450084F83D000020D1
:1022700010BD704710B50446022249B104290ED0A2
:10228000082913D094F84100012816D0012010BD70
:1022900094F83E000128F9D184F83E200FE094F82C
:1022A0003F000128F2D184F83F2008E094F8400074
:1022B0000128EBD184F8402001E084F8412001227C
:1022C000206800F091FF0F492068884203D1426CDA
:1022D00042F4004242642068884208D0B0F1804F46
:1022E00005D00949884202D00849884204D1816852
:1022F00001F00701062903D0016841F001010160E6
:10230000002010BD002C01400004004000080040E7
:1023100070477047F8B5016804460868CA684B6999
:1023200010F00F0F4FF0000559D003F0010602F432
:102330009077374365D0C10705D0D10503D5616CCF
:1023400041F001016164410705D5D90703D0616CF3
:1023500041F002016164810705D5D90703D0616CA2
:1023600041F004016164010707D502F02001314307
:1023700003D0616C41F008016164616C00293AD0BE
:10238000800604D5900602D5204601F024FA206884
:102390004069616CC0F38010090700D460B3204627
:1023A00001F0F2F920684069400621D52068143018
:1023B00050E8001F21F0400140E80012002AF5D14A
:1023C000E06BA8B16D494163E06BFEF7EBFB0028C1
:1023D00011D0E06B416B01B0BDE8F04008478306C7
:1023E0000FD593060DD52046BDE8F84001F0F3B9AE
:1023F0002046FFF78EFFF8BD2046FFF78AFF656491
:10240000F8BD266B2023012E7CD1C6067AD5D606D0
:1024100078D508684868009048694FF00206400681
:1024200040D5E16B086840680004000CE8D0A28D3C
:102430008242E5D9E085886920282DD020680C30BB
:1024400050E8001F21F4807140E80012002AF5D105
:102450002068143050E8001F21F0010140E800120C
:10246000002AF5D12068143050E8001F21F0400107
:1024700040E80012002AF5D184F842302563206834
:102480000C3050E8001F21F0100140E80012002A33
:10249000F5D1E06BFEF762FB6663A08DE18D401A1B
:1024A00081B22AE0A08DE18D401A81B2E08D002832
:1024B000A6D00029A4D022680C3252E8000F20F4E4
:1024C000907042E80007002FF5D12068143050E8E2
:1024D000002F22F0010240E80027002FF5D184F8F8
:1024E0004230256320680C3050E8002F22F01002A3
:1024F00040E80023002BF5D166632046FFF708FF74
:10250000F8BDFFE705062BD5150629D594F841003F
:102510002128F5D1A068B0F5805F01D12069B0B164
:10252000206A411C2162216800784860E08C401ECE
:102530000004000CE084E3D12068C16821F0800130
:10254000C1602068C16841F04001C160D8E7206ADD
:102550000088C0F308004860206A801C2062E5E71C
:102560004006CDD55006CBD5CA68204622F04002A1
:10257000CA6084F8413000F0E5F8C1E77937000817
:1025800070B5040004D094F84100002510B106E0B5
:10259000012070BD84F84050204600F023F824202C
:1025A00084F841002068C16821F40051C1602046D0
:1025B00001F072F92068016921F4904101612068FD
:1025C000416921F02A0141612068C16841F400514C
:1025D000C1606564202084F8410084F8420065638E
:1025E000002070BDF0B585B0002506460095019528
:1025F0000295039500682649884246D1254881699D
:1026000041F480418161816901F4804104918169D3
:1026100041F00801816180691F4C00F008000490BE
:10262000402000900220019003200390694620463C
:10263000FEF726FC8027CDE9007569462046029505
:10264000FEF71EFC1548416841F0E06141F00401CD
:102650004160144C124801C41020A1C4202044F849
:102660001059C4E90550C001E0610E48FEF790FB27
:1026700008B1FEF78FF8B4630022052125206662B9
:10268000FEF700FF2520FEF7EFFE05B0F0BD0000CD
:102690000038014000100240000C014000000140E1
:1026A000440002402405002070472DE9F843044609
:1026B00090F841001F4616460D46202802D0022001
:1026C000BDE8F8837DB176B100206064212084F8F4
:1026D0004100FEF7D3FCA6848046E684A068B0F5EE
:1026E000805F02D003E00120EAE7206910B12E46A6
:1026F00000250EE000260CE08021204601F028F99C
:10270000A0B9AEB116F8010B21684860E08C401EFC
:10271000E084E08C43464FF0000200970028EBD1A4
:102720004FF04001204601F013F930B10320C7E714
:1027300035F8020BC0F30800E6E7202084F84100DA
:102740000020BDE77047FEE701684A69D2435205A1
:102750000FD46FF480624A61002140F8301F2022BC
:1027600042738173026942F0040202610173012025
:102770007047002070470000F8B50446C06A1E4646
:102780000D461746082807D0012805D010F5803FD0
:1027900002D0206B122804D12068016841F48071B6
:1027A0000160134600224FF001112046009600F010
:1027B0005DF840B120680068C00502D54FF4007094
:1027C00020640320F8BD2069B0F5804F0ED00620AC
:1027D000216800EAD51040F0F000086133463A461F
:1027E0000B49204600F08AF878B902E005F0FE00B7
:1027F00000E0E8B221680861054933463A46891F7E
:10280000204600F07BF80028DCD00120F8BD000055
:102810000800010070B516460D4604461EE020462D
:10282000FFF792FF08B1012070BD681C16D0FEF7BB
:1028300025FC801BA84200D885B920684069C043A8
:1028400040070BD5002044F8300F20216173A0739E
:10285000216941F0200121612073E4E7206840698B
:10286000C0434007DBD4002070BD00002DE9F047D5
:10287000984617460D460446C1F30746DDF82090FA
:102880002AE000BFB8F1FF3F26D0FEF7F7FBA0EB30
:102890000901414502D8B8F1000F1DD12068012E71
:1028A00016D0806925EA00000004000C12D0002038
:1028B000B84211D1002044F8300F20216173A07379
:1028C000216941F02001216120730120BDE8F087DA
:1028D0004069E7E70120EBE72068012E0AD0806914
:1028E00025EA00000004000C06D00020B842C9D040
:1028F0000020EBE74069F3E70120F7E72DE9F04717
:10290000984616460D4604464FF000094FF0200A3F
:10291000C1F3074723E020684069C043400515D450
:102920002068016841F40071016021686FF48060E3
:102930004861C4F8309084F83DA084F83E90216C42
:1029400041F00401216484F83C9021E0701C06D021
:10295000FEF794FBA0EB0800B04203D816B1012F9C
:102960001FD021E02068012F15D0806925EA0000E2
:102970000004000C18D000BF44F8309F84F80DA06C
:1029800084F80E90216941F02001216184F80C90B7
:102990000120BDE8F087406925EA00000004000C32
:1029A000EAD12068406901E02068806925EA0000DA
:1029B0000004000CAFD1ECE770B516460D46044696
:1029C0001EE02046FFF7C0FE08B1012070BD681C64
:1029D00016D0FEF753FB801BA84200D885B92068AB
:1029E0004069C04300060BD5002044F8300F202179
:1029F0006173A073216941F0200121612073E4E734
:102A000020684069C0430006DBD4002070BD000090
:102A1000FEB50024254800940194234902940160E6
:102A200089158160012505730475052606614FF43B
:102A300060214460C161FDF735FF08B1FDF7AAFED2
:102A400007200094CDE9015069461848FDF7A4FE1F
:102A500008B1FDF79FFE0224CDE9005469461348F2
:102A6000FDF79AFE08B1FDF795FE00940324694630
:102A70000E480194FDF790FE08B1FDF78BFE00941F
:102A80000424694609480194FDF786FE08B1FDF764
:102A900081FECDE9004669460448FDF77DFE002829
:102AA00001D0FDF777FEFEBD002401407403002035
:102AB0000D4808B5416941F00101416140690022BA
:102AC00000F00100009005210B20FEF7DBFC0B203D
:102AD000FEF7CAFC002205210E20FEF7D3FCBDE85C
:102AE00008400E20FEF7C0BC0010024010B5B8B080
:102AF0001C222C496846FDF73BFC0021684601F08A
:102B0000EFFA294C27491C2220601C3107A8FDF749
:102B10002FFC002107A801F0E3FA224960601C2283
:102B200038310EA8FDF724FC00210EA801F0D8FAD8
:102B30001C49A0601C22543115A8FDF719FC002186
:102B400015A801F0CDFA1749E0601C2270311CA8CD
:102B5000FDF70EFC00211CA801F0C2FA114920610A
:102B60001C228C3123A8FDF703FC002123A801F0CF
:102B7000B7FA0C4960611C22A8312AA8FDF7F8FBBE
:102B800000212AA801F0ACFA0649A0611C22C43138
:102B900031A8FDF7EDFB002131A801F0A1FAE061B9
:102BA00038B010BD105C0008000000202DE9F04195
:102BB00086B000242A480094019402940394816909
:102BC00041F010018161816901F010010491816976
:102BD00041F020018161816901F020010491816946
:102BE00041F004018161816901F00401049181696E
:102BF00041F00801816180691A4F00F008004FF42C
:102C000000450490002229463846FEF731FADFF8E5
:102C1000588000224FF221014046FEF729FA009524
:102C2000032601250396CDE9015469463846FEF78F
:102C300027F903960095CDE9015469464046FEF711
:102C40001FF94FF22000CDE900050220CDE9024036
:102C500069464046FEF714F906B0BDE8F081000071
:102C60000010024000100140000C01400D4810B55A
:102C70000B4901600C49416000214FF480428160A2
:102C8000C0E9031241618161C1610162FEF7FCF993
:102C9000002803D0BDE81040FDF77CBD10BD00004A
:102CA00000540040E8030020A0860100104810B541
:102CB0000E4901604FF48271416000218160C16062
:102CC0004FF400720161C0E905120822C0E9072132
:102CD000416281620A21C162FEF7E8FE002803D04A
:102CE000BDE81040FDF756BD10BD000000300140AA
:102CF0003C04002010B58EB0002407940894099479
:102D00000A940B941C2168460C94FDF785FB1F4820
:102D10001D4901600121C0E9011440F2E731C0E919
:102D200003148461FFF73EF908B1FDF733FD4FF45A
:102D30008050079007A91548FFF776F908B1FDF70D
:102D400029FD1248FFF768FA08B1FDF723FD0B943F
:102D50000BA90E480C94FFF7F1F808B1FDF71AFD26
:102D6000602000904FF4FA70CDE901040C2269460E
:102D700006480494FFF7EAF908B1FDF70BFD034894
:102D8000FFF7C0F90EB010BD00040040940400200D
:102D90000C4810B50A4901604FF4165141600021FA
:102DA00081600C22C160C0E904128161C161FFF73A
:102DB000E7FB002803D0BDE81040FDF7EBBC10BDD9
:102DC00000380140DC040020FEE700002DE9FF414F
:102DD000104B6D464FF4FA770FCB8DE80F000820AB
:102DE000002400EBD0760EE035F82400394600F0E0
:102DF0000BFE05EB8400B0F9020000EB800001F04F
:102E000063F9641CE4B2B4EB660FEDDB00F0F4FD93
:102E1000BDE8FF812C5D00082DE9FC4111496D469C
:102E20004FF4FA77D1E90001CDE900010420002434
:102E300000EBD0760FE000BF35F82400394600F0F3
:102E4000E3FD05EB8400B0F9020000EB400001F067
:102E50003BF9641CE4B2B4EB660FEDDB00F0CCFD93
:102E6000BDE8FC811C5D00082DE9FC4111496D465F
:102E70004FF4FA77D1E90201CDE9000104200024E2
:102E800000EBD0760FE000BF35F82400394600F0A3
:102E9000BBFD05EB8400B0F9020000EB400001F03F
:102EA00013F9641CE4B2B4EB660FEDDB00F0A4FD93
:102EB000BDE8FC811C5D0008FEE770B504461546C0
:102EC000084600F009F8204600F006F82846BDE85C
:102ED000704000F001B8000070B5104E05460024A7
:102EE000A540EDB228064FF001024FF02001304618
:102EF00003D5FEF7BDF8012202E0FEF7B9F8002283
:102F000020213046FEF7B4F8002220213046FEF79B
:102F1000AFF8641CE4B2082CE2D370BD000C014091
:102F2000F8B5044640684FF48273984217D1A06800
:102F30004FF48065B0F5004F01D0A8420FD1206852
:102F4000066826F0400606606068984207D1A068CF
:102F5000A84204D100920B460022012103E0009216
:102F60000B4600228021204600F018F8002804D0EB
:102F7000606D40F0200060650320F8BD38B50B4659
:102F8000009204460022802100F008F8002804D0B6
:102F9000606D40F020006065032038BD2DE9F843E6
:102FA0001E46914688460446089DFEF767F8401B7A
:102FB000351AFEF763F8074625480068C0F3CB30A2
:102FC000684338E0701C37D0FEF758F8C01BA842A1
:102FD00003D215B1009860B32CE02068416821F05D
:102FE000E00141606068B0F5827F0BD1A068B0F568
:102FF000004F02D0B0F5806F04D12068016821F045
:1030000040010160A06AB0F5005F09D12068016845
:1030100021F4005101602068016841F40051016011
:10302000012084F85100002084F850000320BDE8FE
:10303000F8830025401E00902068816838EA01006E
:1030400004D000214945BDD10020F0E70121F9E776
:103050002C00002070B50D460646002404E0305DCB
:1030600000F006F8641CE4B2AC42F8D370BD000076
:1030700008B564238DF80000012269460148FFF776
:1030800014FB08BDDC04002030B5CBB0A5238DF8BF
:1030900000305A238DF801308DF802208DF803009E
:1030A00004246D46002005E00B5C2B55641C401C7D
:1030B000E4B2C0B29042F7D3121DD1B22846FDF758
:1030C0002BFB010A2955641CE1B26854491CC8B2A3
:1030D000FF212954401CC1B26846FFF7BBFF4BB02B
:1030E00030BD012000F0F0FFFBE710B5FEF75EF900
:1030F00002F00CFC012803D0BDE8104002F098BBA0
:1031000010BD30B593B028216846FDF785F914212C
:103110000AA8FDF781F9002501200F95109511955A
:10312000010412958DE8230004904FF4E010CDE9DE
:103130000810022407946846FEF728FB08B172B60F
:10314000FEE70AA90F2081E831004FF48060CDE945
:103150000D0502210AA8FEF73DFA08B172B6FEE796
:103160004FF4004011900F940FA8FEF7BDF900280E
:1031700001D072B6FEE713B030BD7047F0B50268FB
:10318000164B174C174D4FF08047984205D0B84268
:1031900003D0A04201D0A84203D122F070064A68B1
:1031A0003243984205D0B84203D0A04201D0A84291
:1031B00003D122F44074CA6822434C6922F0800291
:1031C000224302608A68C2620A688262984201D120
:1031D0000969016301214161F0BD0000002C01403B
:1031E000000400400008004010B501F01F03012159
:1031F000046A99408C430462016A9A401143016257
:1032000010BD10B5846842EA032224F47F440A43C7
:103210002243826010BD826822F070020A4342F0AD
:10322000070181607047000030B5036A026A22F02E
:10323000010202624268846924F073050C682C4321
:1032400023F002058B682B430A4DA8420BD123F0D3
:103250000805CB6822F440722B434D6923F0040328
:1032600015438A692A434260846149684163036265
:1032700030BD0000002C014030B5026A036A23F023
:1032800010030362436884690D6824F4E64444EA49
:1032900005248D6822F0200242EA05120B4DA84257
:1032A0000ED1CD6822F0800242EA05124D6923F466
:1032B000406343EA85038D6922F0400243EA8503B7
:1032C0004360846149688163026230BD002C014023
:1032D00030B5036A026A22F4807202624268C469ED
:1032E00023F4007324F073050C682C438D6843EAC3
:1032F00005230C4DA8420ED1CD6823F4006343EAA8
:1033000005234D6922F4405242EA05128D6923F4E7
:10331000806342EA05124260C4614968C163036286
:1033200030BD0000002C014030B5046A026A22F46E
:10333000805202624268C3690D6823F4E64343EA9F
:1033400005238D6824F4005444EA0534064DA84250
:1033500004D14D6922F4804242EA85124260C36181
:1033600049680164046230BD002C014010B5036A55
:10337000046A24F001040462846924F0F00444EA3D
:10338000021423F00A020A438461026210BD10B5E0
:10339000036A046A24F010040462846923F0A00321
:1033A00024F4704444EA023243EA0111826101626A
:1033B00010BD00000EB5124C6D46A4F11C06002095
:1033C00036F8101024F810105FF0000101EB4002F5
:1033D000491CA35CAB540229F8DB401C0528EFDB39
:1033E00008480C2201788DF8051040788DF8060009
:1033F000B07E6946FFF748FE1E2000F065FEDEE75E
:10340000D02E00200030002019223E493E48FDF712
:103410001FFBDFF8F090DFF8F4A009F15209A9F1E1
:103420000A0BA9F11E050026AAF101073878E0B3BE
:103430005FF00004334B4FF000084FEA080C33F8FC
:10344000142011460CEB8C00204433F8100080440B
:103450001FFA88F8904200D20246884200D90146FD
:103460000CF1010CBCF1050FECDBA8EB0200401ADB
:103470000C2190FBF1F081B229F8141050465A4605
:1034800008E0035D5B1CDBB203550C2B02D322F872
:103490001410065532F814308B42F2D11B4998B201
:1034A000491D31F81410401A00E027E045F82400C7
:1034B00002F00CFB21F000410022154B02F01EFB34
:1034C00001D245F8246054B155F824104FF4967099
:1034D000814202DC4042814201DA45F824000D4974
:1034E000002001EB440100BF35F82420401C0A8075
:1034F0000528F9DB641C052C9CDB3E700A2000F0DB
:10350000E3FD93E7DC2E00207403002097000020E9
:1035100000002E40B42E0020094D002428194FF041
:1035200000028078114608B1002000E03220FFF749
:10353000C4FC641C102CF1DB502000F0C5FDECE74E
:1035400000300020144C154D4FF400460122314646
:103550002046FDF78DFD012211462846FDF788FD26
:10356000002201212846FDF783FD0122114628464D
:10357000FDF77EFD002231462046FDF779FD14233C
:10358000022207490748FEF723FB054800F040FDEB
:103590000A2000F099FDD9E700100140000C01401D
:1035A000003000203C040020184C01224FF47041F0
:1035B0002046FDF75DFD164E4FF400474FF480485E
:1035C0004FF400594FF4805A4FF4FA753078C0B96F
:1035D00039462046FDF744FD284600F075FD41467A
:1035E0002046FDF73DFD284600F06EFD4946204689
:1035F000FDF736FD284600F067FD51462046FDF7F1
:103600002FFD284600F060FDE0E70000000C0140BF
:10361000940000201CB50A2000F056FD494800F037
:10362000A7FF4A4C484D261DA87808B1E87810BB82
:103630000A2000F049FDE87810B1A87870B11AE0CE
:10364000607800EB400006EB80004078607001205D
:1036500000F03AFDE8780028F9D00CE0607800EB43
:10366000400006EB800080786070012000F02CFDA7
:10367000A8780028F9D06078B8BB324800F092FFF3
:103680003349304801F05DF900212E4801F069F915
:1036900030A30A2248212B4801F0D8F82FA31E227C
:1036A0004821284801F0D2F82EA33222482125488B
:1036B00001F0CCF82D482178002200EB01304021A8
:1036C000CDE900100B4611461E4801F0CDF81D480B
:1036D00001F02EF92078401CC0B22070042801D1DE
:1036E000002020702249012008706078A17888426B
:1036F0000ED0144800F056FF607800EB400006EB57
:103700008000406880470F4801F012F96078A0708F
:103710006078184900EB400006EB80008068884222
:103720000CD0084800F03EFF607800EB400006EB4C
:10373000800080688047034801F0FAF80A2000F012
:10374000C3FC71E76C2F002000300020A80000208F
:10375000ADC3000856696E6369000000312E312E3A
:1037600030000000427920536C6800003C5D000886
:1037700095000020453B000810B5406A0021C18536
:10378000C184FEF7C6FD10BD01680C3151E8002F61
:1037900022F4907241E80023002BF5D10168143126
:1037A00051E8002F22F0010241E80023002BF5D15F
:1037B000016B012909D101680C3151E8002F22F079
:1037C000100241E80023002BF5D1202180F842109F
:1037D00000210163704708B590F84210222901D0FA
:1037E000022008BD82684FF480539A4201D10169DA
:1037F00021B1816A9A421BD04AB10AE00268816A0B
:103800005268C2F308020A80816A891C08E00269D2
:1038100072B10268526802F07F020A70816A491C24
:103820008162C18D491E0904090CC18503D01BE0CA
:1038300002685268F1E70168CA6822F02002CA6093
:103840000168CA6822F48072CA6001684A6922F07D
:1038500001024A61202180F8421000214163026B7D
:10386000012A03D0FEF720FF002008BD0163016894
:103870000C3151E8002F22F0100241E80023002B08
:10388000F5D101680A68D20602D50A684968009134
:10389000818DFEF73DFDE7E770B5044600680169DC
:1038A000E26821F44051114301612169A068084395
:1038B000616908432168CA6841F20C639A43024374
:1038C000CA6020684169A26921F4407111434161D5
:1038D0001E492068884202D1FDF722FF01E0FDF772
:1038E0000FFF00EBC00101EB001260686421800053
:1038F000B2FBF0F3B3FBF1F36FF018067343B2FBC6
:10390000F0F5B2FBF0F605EB8305322303EB05156A
:10391000B5FBF1F5B6FBF1F605F0F00505EB061584
:10392000B2FBF0F6B2FBF0F0B0FBF1F06FF0180272
:10393000504306EB800003EB0010B0FBF1F0216870
:1039400000F00F002844886070BD0000003801407E
:103950002DE9F041984617460E460446069D27E09D
:10396000681C25D02DB1FDF789FBA0EB0800A8420B
:103970001ED920680C3050E8001F21F4D07140E8B7
:103980000012002AF5D12068143050E8001F21F001
:10399000010140E80012002AF5D1202084F84100FE
:1039A00084F84200002084F840000320BDE8F08144
:1039B0002068006836EA000004D00020B842CFD06A
:1039C0000020F3E70120F9E70148FEF7A3BC00005F
:1039D000DC040020FEE70907090E002804DB00F1E3
:1039E000E02080F80014704700F00F0000F1E020A4
:1039F00080F8141D70470000024900200968C86360
:103A00007047000094040020024A1368986210680E
:103A1000C1637047940400201CB51249022008704D
:103A20001149124800F08DFF11A30F2205210F4804
:103A300000F00CFF10A31E2205210C4800F006FF29
:103A400010A32D220521094800F000FF0F49122084
:103A5000CDE90001192300222821044800F02AFFA3
:103A60001CBD000095000020ADC300086C2F002095
:103A70006261636B0000000063616C696272617473
:103A8000696F6E00766F6C756D6500003CBD000857
:103A90001CB51249022008701149124800F051FF6C
:103AA00011A30F2205210F4800F0D0FE10A31E2203
:103AB00005210C4800F0CAFE10A32D22052109485B
:103AC00000F0C4FE0F491220CDE9000119230F2296
:103AD0005F21044800F0EEFE1CBD000095000020B0
:103AE000ADC300086C2F00206261636B0000000012
:103AF00063616C6962726174696F6E00766F6C7578
:103B00006D6500003CBD0008074910B50220087033
:103B10000649074800F015FF1C22BDE8104005A328
:103B20000A21034800F092BE95000020ADC30008B2
:103B30006C2F00207C63616C6962726174696E67CE
:103B40007C000000704700001CB50F49022008707F
:103B50000E490F4800F0F5FE0EA30F2205210C4878
:103B600000F074FE0CA31E220521094800F06EFE31
:103B70000B491220CDE90001192300222821044815
:103B800000F098FE1CBD000095000020ADC30008A9
:103B90006C2F002073657400776F726B000000005B
:103BA0003CBD00087CB51949194800F0CAFE002147
:103BB000174800F0D6FE17A30A224821144800F047
:103BC00045FE16A31E224821114800F03FFE15A312
:103BD000322248210E4800F039FE14490220002408
:103BE000134D08705FF0400605EB0430CDE900602E
:103BF000002240231146064800F036FE044800F03B
:103C000097FE641C052CEFDB7CBD0000ADC30008F3
:103C10006C2F002056696E6369000000312E312E32
:103C200030000000427920536C68000095000020AD
:103C30003C5D00081CB51249022008701149124869
:103C400000F07FFE11A30F2205210F4800F0FEFDBA
:103C500010A31E2205210C4800F0F8FD10A32D2210
:103C60000521094800F0F2FD0F491220CDE90001BD
:103C700019231E223721044800F01CFE1CBD000041
:103C800095000020ADC300086C2F00206261636BBB
:103C90000000000063616C6962726174696F6E009C
:103CA000766F6C756D6500003CBD0008074910B566
:103CB000022008700649074800F043FE1422BDE8C0
:103CC000104005A31E21034800F0C0BD9500002050
:103CD000ADC300086C2F00207C766F6C756D657C21
:103CE000000000001CB50F49022008700E490F4863
:103CF00000F027FE0EA30F2205210C4800F0A6FDC0
:103D00000CA31E220521094800F0A0FD0B4912203A
:103D1000CDE9000119230F222821044800F0CAFD33
:103D20001CBD000095000020ADC300086C2F0020D2
:103D300073657400776F726B000000003CBD000873
:103D4000F8B5A24DA24E002405EB4400A1A1B0F9A4
:103D5000002004EB840006EB4000FCF785FA641CAD
:103D6000052CF1DB9A489C49343000F0EAFD984874
:103D70009AA30A220221343000F068FD944B0A22F3
:103D8000262103F1340000F061FD914895A314222F
:103D90000221343000F05AFD8D4B14220A332621C3
:103DA00003F12A0000F052FD894890A31E2202214F
:103DB000343000F04BFD864B1E221433262103F1D4
:103DC000200000F043FD82488AA3282202213430DB
:103DD00000F03CFD7E4B28221E33262103F1160005
:103DE00000F034FD7A4885A332220221343000F0FD
:103DF0002DFD774B32222833262103F10C0000F0F1
:103E000025FD73483C2302224121343000F026FD79
:103E10006F483C2302225021343000F01FFD6C48D3
:103E20003C2302225F21343000F018FD68483C2317
:103E300002226E21343000F011FD65483C2302223D
:103E40007D21343000F00AFD61483C2302224221EA
:103E5000343000F00AFC5E483C2311224221343009
:103E600000F003FC5A483C2320224221343000F069
:103E7000FCFB57483C232F224221343000F0F5FB55
:103E800053483C233E224221343000F0EEFB5048A0
:103E90005CA30D225321343000F0D8FC4C485AA3C7
:103EA0000D224321343000F0D1FC584D0F242879E5
:103EB00038B947480F2302225F213430009400F0C4
:103EC0007AFB687938B942480F2302226E213430D8
:103ED000009400F070FBA87938B93D480F231122F7
:103EE00041213430009400F066FBE87938B9384855
:103EF0000F23112250213430009400F05CFB287A0B
:103F000038B933480F2311225F213430009400F078
:103F100052FB687A38B92E480F2311226E213430B3
:103F2000009400F048FBA87A38B929480F232022D2
:103F300041213430009400F03EFBE87A38B924483F
:103F40000F23202250213430009400F034FB287BD2
:103F500038B91F480F2320225F213430009400F02D
:103F60002AFB687B38B91A480F2320226E2134308F
:103F7000009400F020FBA87B38B915480F232F22AE
:103F800041213430009400F016FBE87B38B910482A
:103F90000F232F2250213430009400F00CFB287C9A
:103FA00038B90B480F232F225F213430009400F0E2
:103FB00002FB687C002807D105480F232F226E21C1
:103FC0003430009400F0F7FAF8BD0000B42E002061
:103FD000382F002025640000FEBE000863685B31B6
:103FE0005D3A000063685B325D3A000063685B33F2
:103FF0005D3A000063685B345D3A000063685B35DE
:104000005D3A0000444E000053450000003000209F
:1040100010B500210122037802FA01F42340CB40BD
:104020004418491CA3700829F5DB0021437802FAE3
:1040300001F42340CB404418491CA3720829F5DB46
:1040400010BDFDF7BBF9FFF75CF8FEF7AFFDFEF71B
:104050002FFDFEF70BFEFEF79BFEFEF74BFEFEF775
:10406000D7FCFEF723FE0A20FCF7F8FEFEF73EFD24
:1040700000F031F8FEE701460020842900D0C81C7A
:10408000704700000C210E48FEF7F4F8FEF79EFE84
:104090000C4C4FF4487600252178012902D00229E2
:1040A00007D009E0FEF7B8FE2570304600F00CF8A6
:1040B00002E0FEF7D9FE2570142000F005F8EBE7CA
:1040C000940400209500002010B500B9012001F0F3
:1040D000C9FA002010BD10B501F0EAFA002010BDA9
:1040E0007FB50D4604464169B0F9080081B1A16968
:1040F00071B1FFF7C0FFD4E905128DE80700D4E9DC
:1041000000102B46226901F0D6FB039004B070BD6D
:10411000FFF7B1FF03A9CDE90001208A2B4682B247
:10412000D4E9001001F09AFB012801D00020EDE74E
:104130000398EBE72DE9F041184C0F4605466669F8
:104140002068001D01F0CAF938B9206890F82C10D9
:1041500001208840A1698143A161681C07D137B162
:104160002168BDE8F0410E48091D01F0FBB9206847
:104170003544B5424560216805D2A068BDE8F041EC
:10418000091D01F0D7B96068091D01F0D3F9206B52
:10419000854200D22563BDE8F08100003400002094
:1041A000640600202DE9F041054601F0E7F92E4CA8
:1041B0002069401C206120682C4F10B1E06940B399
:1041C0002DE025602069012829D1002606EB860014
:1041D00007EB800001F0A0F9761C072EF6D32348E8
:1041E0008C3001F099F92148A03001F095F91F4871
:1041F000B43001F091F91D48C83001F08DF91B4829
:10420000DC3001F089F919488C3060601430A0600E
:1042100005E02068E96AC06A884200D82560E06A43
:10422000401CE062E96A0120A26988401043A06155
:1042300001EB810007EB8000291D01F093F901F0EB
:10424000BDF9E06900280CD02068E96AC06A88429C
:1042500007D207494FF080500860BFF34F8FBFF37C
:104260006F8FBDE8F0810000340000208805002039
:1042700004ED00E010B5044690F8510058B1012853
:104280000CD002280FD0502080F31188BFF34F8F3D
:10429000BFF36F8FFEE7206B01F0A4F92046BDE865
:1042A000104001F09FB910BD0F4842F21071420753
:1042B00005D0C01D0C4A20F00700821A891A0B4A4B
:1042C00000230144C2E900030839103A21F0070134
:1042D00011604B600B600B1AC0E9001393604FF044
:1042E00000405360D06070477806002080000020B6
:1042F000144E154CA6F1C8074FF08058DFF84C90CB
:1043000012E000BF01F03AF9F068C568281D01F01D
:10431000E5F82069401E2061E068401EE06001F081
:104320004DF92846FFF7A6FFE0680028EAD1386873
:104330000128F9D9C9F80080BFF34F8FBFF36F8F01
:10434000F2E70000500600203400002004ED00E0F9
:104350002DE9F0479A46DDE9098481466FF00303B1
:10436000206B03EB82021044089D20F007067007C3
:1043700007D0502080F31188BFF34F8FBFF36F8FAA
:10438000FEE723180A5C83F834200A5C12B1401C53
:104390001028F6D3002784F84370072D00D3062594
:1043A000E562C4E91157201D01F0C1F804F11800BD
:1043B00001F0BDF82461C5F107006462A061E76403
:1043C00084F8507052464946304600F0BFF82060ED
:1043D000B8F1000F01D0C8F80040BDE8F087000038
:1043E00030B5114900E011460A688242FBD34B68A0
:1043F0005C18844203D1406818444860084643680A
:104400001C18944209D1084C103C2468A24209D0DF
:1044100052681A4442600A6812680260814200D001
:10442000086030BD0460F9E780000020064841685C
:10443000096829B14168C968C9684968016370475A
:104440004FF0FF31FAE700003400002008484068D0
:10445000401C4FF0500080F3118804D0BFF34F8F01
:10446000BFF36F8FFEE7BFF34F8FBFF36F8FFEE792
:10447000880000202DE9F0410546002701F04EF9A3
:10448000314E306808B9FFF70FFFF06805424BD195
:10449000C5B3083568070ED005F00700C0F1080065
:1044A0000544680707D0502080F31188BFF34F8F71
:1044B000BFF36F8FFEE72DB37068854234D8224872
:1044C000103001460C6801E020460C466168A942A4
:1044D00002D221680029F7D131688C4224D00768C4
:1044E0002168016060680837411B10290FD96019E5
:1044F000420708D0502080F31188BFF34F8FBFF3DD
:104500006F8FFEE710E041606560FFF769FF61684B
:104510007068401A7060B268904200D2B060F06873
:1045200001430020C4E9000101F062FA780707D0D6
:10453000502080F31188BFF34F8FBFF36F8FFEE7DA
:104540003846BDE8F08100007000002010B5031F60
:104550004FF080741C601B1F21F001011960191FAE
:10456000024B0B60143940380A6010BD4D440008FE
:1045700010B50446084B094A094900F02DFA2046B7
:1045800000F089FD0021204600F095FD2046BDE8A1
:10459000104000F007B800007F4E00085951000895
:1045A00020CB000801680A7C90F83810406B51431A
:1045B000C900FBF70FBF2DE9F8438146089C1E4652
:1045C000101980B20090881983B215468846484673
:1045D00000F096F900280ED00027002C0BD03346AF
:1045E0002A4641464846009700F046F86D1C641E76
:1045F000ADB2A4B2F1E7BDE8F8832DE9F04104467D
:1046000090F870001F4615460E4630B1012809D0BB
:1046100002280CD0032815D10FE0E16D2046884711
:10462000284408E0E16D20468847301A09E0E16D32
:1046300020468847281A85B204E0E16D2046884765
:10464000304486B22846A4F86460A4F8660039466F
:104650000025204600F0B6FB010003D0204600F004
:10466000E1FA85B22846BDE8F08138B5002400940F
:1046700000F002F838BD00003FB581B0044690F864
:104680008C00089900283AD0BDF81000002836D0D8
:10469000012811D9022902D0032907D00CE0BDF866
:1046A0000820101A401CADF8080005E0BDF80C20E9
:1046B000101A401CADF80C0011F0010521D0B4F81F
:1046C0004810BDF80800814219D8B4F84A10814258
:1046D00015D9B4F84E30B4F84C2004A90DF10C00F3
:1046E00000F012FA00280AD00095206BBDF81030B7
:1046F000BDF80C208568BDF808102046A84705B015
:1047000030BDB4F84C10BDF80C008142F7D8B4F8B5
:104710004E108142F3D9B4F84A30B4F8482004A9C5
:1047200002A8DDE72DE9FF4F81B090F89270DDF827
:1047300038901D46884606469FB100208346039860
:104740004146401C80B2009008EB050083B2304621
:10475000039A00F0D5F800282BD001244FF0000A6E
:1047600023E00120EAE700BF99F80000204202D0D0
:1047700086F8927004E096F8910048B986F892B0F5
:104780000123CDF800A041463046039AFFF774FF9D
:1047900008F101001FFA80F8600010F0FF0402D158
:1047A000012409F101096D1EADB2002DDCD186F89E
:1047B000927005B0BDE8F08F2DE9FF4F81B090F801
:1047C0009270DDF838901D46884606469FB100205D
:1047D000834603984146401C80B2009008EB0500D8
:1047E00083B23046039A00F08BF800282BD00124C6
:1047F0004FF0000A23E00120EAE700BF99F800002B
:10480000204202D086F8927004E096F8910048B9F0
:1048100086F892B00123CDF800A041463046039AB5
:10482000FFF72AFF08F101001FFA80F8600010F07E
:10483000FF0402D1012409F101096D1EADB2002D62
:10484000DCD186F8927005B0BDE8F08F30B4024C30
:10485000446030BC00F085B91D51000838B5012412
:104860000094FFF709FF38BD2DE9F84F8246DDE9D6
:104870000A57D81DC0F3CC08501980B21C460090CE
:10488000081983B216468946504600F039F80028C8
:104890000ED00BE023463246494650460097FFF7BC
:1048A00041FF761C6D1E4744B6B2ADB2002DF1D16A
:1048B000BDE8F88F2DE9F84F8246DDE90A57D81D8B
:1048C000C0F3CC08501980B21C460090081983B27E
:1048D00016468946504600F013F800280ED00BE02B
:1048E00023463246494650460097FFF765FF761C3F
:1048F0006D1E4744B6B2ADB2002DF1D1BDE8F88FC0
:1049000070B50D461E460446B0F84E10B0F84C0087
:10491000049B00F0C4FA002809D0B4F84A10B4F897
:10492000480033462A46BDE8704000F0B8BA70BD72
:1049300010B5044600F043FB2046BDE8104000F0EF
:10494000B2BB10B50446806D884209D004F17400F2
:10495000A16500F0FFFA2046BDE8104000F058B80D
:1049600010BD80F8701070470149C16570470000A4
:10497000D94B00080021A0F85010A0F854104FF6B1
:10498000FF71A0F85210A0F85610016B4968084753
:1049900070B5044600250498A565E362616384F858
:1049A000382084F8395084F86D5084F8915084F898
:1049B0008D50012184F8921084F8931020630168CF
:1049C000204688472046FFF7D5FF2046FFF7CCFF5B
:1049D00084F8705070BD00007CB50C4600931346FF
:1049E0000546084A084900F06EFB01A800F0ACFA41
:1049F0000146064B00949DF804202846FFF7C8FFA7
:104A00007CBD00006D52000895530008B94E0008A7
:104A100010B5816D00291AD090F9813080F88E3060
:104A200090F9822080F88F2090F88D1000290ED008
:104A300001290DD090F97E4090F980100C449C42E1
:104A400001DD80F88E408A4201DD80F88F1010BDB4
:104A500090F983108B4201DA80F88E1090F984105F
:104A6000F1E72BB1012B05D0022B06D0104402E058
:104A7000084400E0801A80B27047401AFBE72BB16F
:104A8000012B05D0022B06D0401A02E0104400E0B2
:104A9000084480B27047801AFBE738B50446B0F886
:104AA00056000090B4F85230B4F85420B4F85010C6
:104AB0002046FFF725FF18B3012084F88C00B4F8D6
:104AC0004810B4F85000814201D2A4F84800B4F86C
:104AD0004A10B4F85200814201D9A4F84A00B4F84F
:104AE0004C10B4F85400814201D2A4F84C00B4F840
:104AF0004E10B4F85600814201D9A4F84E0038BDDA
:104B0000002084F88C0038BD30B504880D88254419
:104B1000ADB2AC4205D99C4202D25D1EADB200E0FE
:104B200014469C4201D2954201D8002030BD9442E7
:104B300000D214469D4200D91D460480281B0880DF
:104B4000012030BD38B5C58F049C0094521BC46A47
:104B500092B2A04738BD38B5049C0094FFF7F2FF2D
:104B600038BD2DE9F0471C4691468846064600F0C0
:104B7000B1FC00254FF6FF777268217830469047E8
:104B80000346B84225D0641CA3F57F40FE38F3D01D
:104B90004A4641463046FFF730FD96F8701031B175
:104BA000012907D0022908D003290FD10AE008EB18
:104BB000000104E009EB000106E0A8EB00011FFA88
:104BC00081F803E0A9EB00011FFA81F9284485B2BE
:104BD000D2E72846BDE8F0870020704710B50C46A4
:104BE00000F006F80122641EA240801A40B210BDF7
:104BF00030B50568047B2A78E2406318DBB2082BE5
:104C000009D36D1C05602D78C4F10804A540154337
:104C1000083BEAB2DBB201248C40641E14400373EB
:104C2000204630BD2DE9F843054600F1600400F050
:104C30000CF915F96B6F2046E97BFFF7CFFF814632
:104C4000297C2046FFF7CAFF0746697C20466B3D5A
:104C5000FFF7C4FF804694F90A00002857DDF019D9
:104C6000404247B2237CA0883A464946FFF7F9FE06
:104C7000A080237C3A46E0884946FFF700FFE080A9
:104C8000A188277C02460B4637B1012F0AD0022F9C
:104C900040D0032F0FD146E094F90A7030443B44D2
:104CA0009BB207E0891B491C94F90A705B1C89B20E
:104CB0009BB2384480B200902846FFF721FE30B303
:104CC0000020207284F8090095F876102046FFF73E
:104CD0008FFF814695F877102046FFF789FF07463A
:104CE00000224946284600F027F801223946284686
:104CF00000F022F801212046FFF77AFF0028EFD1CB
:104D000094F90900B042DFDBA07B85F892004046B1
:104D1000BDE8F88394F90A705B1CC91B491C89B271
:104D20009BB2921B04E094F90A7033449BB2D21BED
:104D3000521C92B2401CBDE72DE9F74F84B00D46DE
:104D4000049C94F8687094F869806034A07AC01B61
:104D5000C6B20196B54200D201954FFA88F279B2F7
:104D6000A088B4F806B0237C92468946FFF779FE06
:104D70000290237C524649465846FFF780FE024681
:104D8000069808B1A17B02E0607B50B9E17B0498F2
:104D900080F89210207C0090DDE901310498FFF743
:104DA0006BFCB54207D3A81BC5B208F10100002770
:104DB00000F0FF08CAE77819207284F8098007B06C
:104DC000BDE8F08F70B50D460146806D1730FF2DA0
:104DD00010D8612D02D3B1F8881003E0412D02D321
:104DE000B1F886100844417819B30278AA42F9D183
:104DF000801C70BDB1F88A100C1826460021304680
:104E000000F019F804440221304600F014F8361D71
:104E1000A842F3D34FF6FF72207802EA00216078AF
:104E2000084306D0A84201D1E01C70BDA07804441C
:104E3000F2E7002070BD08444FF6FF720178407819
:104E400002EA0121084480B2704730B5054600F1FE
:104E5000600401660020207315F8781F2046FFF7D4
:104E6000C7FEA07269782046FFF7C2FEE072A87EF6
:104E7000A07310B10020E07330BD0120FBE710B536
:104E80001046282909D0292905D04C2905D04D29BB
:104E900003D0002010BDFBF7E1FF012010BD8A42C6
:104EA00005D2834201D89A4203D901207047834238
:104EB000F9D8002070470000F0B502F00706012481
:104EC000B440002590F892E0E7B2DDF814C02C461B
:104ED000BEF1010F01D83D4600D03C46076822F0E4
:104EE0000702BCF1000F3F7C07FB02F7BAB2476B29
:104EF0003A44114409D108785B1E284360401B04E2
:104F000001F8010B1B0CF6D1F0BD0A78761C2A4380
:104F10006240A3F101030A7016F007069BB206D0A7
:104F20006A06150E6206140E002BEED1F0BD428FFC
:104F3000114490F89220012A03D800BF4FF00105D8
:104F4000F2D04FF00104EFE70821017000487047EC
:104F50001230002070B505460878287048786870CF
:104F60008878A870C878E8700879287148796871DD
:104F700088790C46A871E079E871207A2872607A05
:104F80006872A07AA872E07AE872207B2873607B4E
:104F90006873A07BA873E07BE873207C28741121E0
:104FA0002046FFF748FF688213212046FFF743FFA2
:104FB000A88215212046FFF73EFFE88270BD2DE94B
:104FC000F843064690F8387090F83950006800248D
:104FD0004FF6FF7890F81190316830462A460B7CE6
:104FE000716B04FB03FC1FFA8CFC08EACC0C6144D7
:104FF0000091002100F040F8641C6D1CE4B2EDB299
:10500000BC4201D24D45E7D3BDE8F883F0B590F836
:1050100038204FF6FF75036805EAC2018187197CC5
:1050200005EAC101418790F8394005EAC401C1870A
:105030005E7CA718B74201D9321B92B205EAC202C0
:1050400020F8401F11444180998A8180D98AC1800B
:10505000F0BDFFF7DBBF0021A0F84810B0F8441006
:10506000A0F84A10B0F84010A0F84C10B0F8421068
:10507000A0F84E10FFF711BD1CB58DF805108DF886
:105080000620049C8DF804300094012284686B464D
:105090000F21A0471CBD30B484680023A44630BC57
:1050A0001A460A21604730B484680023A44630BC05
:1050B0001A461021604730B484680023A4460A468B
:1050C00030BC0B2160472DE9F04115460E460446E1
:1050D000069F00F009F86761A660C4E90353204603
:1050E000BDE8F04100F012B8002140F8081B064A64
:1050F000026042608260C260C17681770161FF21F7
:10510000017780F8201070479954000830B4846803
:105110000023A44630BC1A4609216047080001D08C
:105120000A2801D14FF6FF70704730B4046900239C
:10513000A44630BC1A461921604713B50122046900
:1051400001AB1721A0471CBD30B404690023A4465D
:1051500030BC1A461821604738B5142922D0124CA9
:10516000172905D0182910D0192911D0002038BDD1
:105170000E4907E0207813F8015B0D54401C521EC5
:105180002070D2B2002AF5D10CE00020207009E096
:105190004FF47A71009190F824102378034A044860
:1051A000FCF736F8012038BD3000002068050020EB
:1051B000E803002030B4C4680023A44630BC1A467B
:1051C0001921604730B4C4680023A4460A4630BCA5
:1051D0001621604730B4C4680023A4460A4630BC98
:1051E0001521604730B4C4681346A4460A4630BC53
:1051F00017216047F8B50C464FEA000514F8011B6B
:10520000182924D00EDC152919D0162917D01729F2
:1052100023D120788DF800006A4601212846FFF747
:10522000E1FF0AE0192912D0FE2916D122788DF863
:1052300000202921284600F031F9641CDEE722789D
:105240008DF80020EE6800232846B047F5E70023DC
:10525000EE681A462846B047D0E7F8BD30B4C468B7
:105260000023A44630BC1A46182160472DE9F041BE
:10527000DFF8B08014460646A1F11402002798F822
:1052800000001D46062A4AD2DFE802F02F03161B53
:105290003E4310B13046FFF748FF3046FFF754FF5A
:1052A00000213046FFF749FF21463046FFF745FF12
:1052B000012088F8000029E021463046FFF73DFF35
:1052C00024E050B13046FFF730FF06E018213046A9
:1052D00000F0EAF8183CE4B21835182C2A46F5D844
:1052E0002146304600F0E0F80EE096F82400FF2852
:1052F00002D1782086F8240037692B4622463046B2
:10530000BC46BDE8F041604788F800700120BDE868
:10531000F0810028F8D03046FFF707FFF4E70020BF
:10532000F5E700001801002070B500234569044628
:105330001A462821A8470023E5681A46142120466A
:10534000A84701224B21204600F0A8F82068292117
:105350000279204600F0A2F800224B21204600F0FE
:105360009DF8206829210279204600F097F8012253
:105370004B21204600F092F82068292142792046EE
:10538000BDE8704000F08AB80160897C80F8221086
:105390007047000070B50C46054600F019F888B952
:1053A000092C0BD00A2C01D0002070BD2846FFF735
:1053B000BBFF05492846FFF71DFF03E003492846C8
:1053C000FFF7E2FF012070BDEEC90008F0CA000837
:1053D0002DE9F0411E46144605460B2908D00D293B
:1053E0000ED00E291ED00F2927D00020BDE8F08155
:1053F0001AB12849FFF7FEFE4AE02649491FF9E79E
:105400004AB124490C31FFF7F5FE286890F81300E3
:1054100085F822003CE01F49491DFFF7EBFE286894
:10542000807CF5E7FFF71AFF81212846FFF7D2FEBF
:1054300021462846FFF7C6FE27E0FFF70FFF7079E9
:1054400095F8221001EBC000C7B240212846FFF7B3
:10545000C1FE102040EA17112846FFF7BBFE07F0F7
:105460000F012846FFF7AEFEB07940F0B0012846A4
:10547000FFF7A8FE30793268C006010E2846FFF714
:10548000B1FE641E14F0FF04F4D12846FFF792FE2B
:105490000120ABE7CDC900080020704730B4446953
:1054A0000023A44630BC60472DE9F04115460E4666
:1054B0000446FFF749FE40212046FFF73EFE2769DC
:1054C0002B46324617212046B8472046BDE8F0411A
:1054D000FFF72BBE002180F826107047D0E901327B
:1054E00001699A60D0E901235A604A68824201D179
:1054F00082684A60002202610868401E08600868ED
:1055000070470000034B036003F1540008608020E3
:10551000106070472001002000F108014FF0FF32B9
:10552000C0E90112C16001610021016070470021E2
:105530000161704730B50B685A1C02D000F10802B7
:1055400002E0026904E02246546825689D42FAD9C7
:1055500053684B6099608A60516008610168491C1A
:10556000016030BD42684A6093688B6093685960FF
:10557000916008610168491C01607047502080F308
:105580001188BFF34F8FBFF36F8F0A494868401CE3
:10559000486001280CD10848006810F0FF0F07D0C0
:1055A000502080F31188BFF34F8FBFF36F8FFEE75A
:1055B000704700008800002004ED00E008494868BA
:1055C00028B1401E486001D180F3118870475020F7
:1055D00080F31188BFF34F8FBFF36F8FFEE700009A
:1055E0008800002070B5002827D0144DA0F10804D1
:1055F0006168E868014207D1502080F31188BFF349
:105600004F8FBFF36F8FFEE722683AB1502080F3CF
:105610001188BFF34F8FBFF36F8FFEE78143616047
:1056200000F07CF860686968084468602046FEF70E
:10563000D7FEBDE8704000F0DBB970BD70000020FF
:105640004FF0E02000210161816105494FF47A7239
:105650000968B1FBF2F1491E416107210161704700
:105660002C00002010B5020014D00F48806B38B118
:10567000502080F31188BFF34F8FBFF36F8FFEE789
:1056800000F04CF800211046FEF754FD00F0B0F990
:10569000002807D105494FF080500860BFF34F8FB5
:1056A000BFF36F8F10BD00003400002004ED00E058
:1056B00010B586B00024039405AA04A903A8049495
:1056C000FFF720FFDDE903010094CDE9011000237D
:1056D0000EA11048059A00F0EEF80F490028486323
:1056E00011D0502080F31188BFF34F8FBFF36F8F1D
:1056F0004FF0FF3008630120C8614C6106B0BDE87F
:10570000104000F041B806B010BD000049444C45BF
:1057100000000000F1420008340000200248816BC4
:10572000491C816370470000340000201448816BDD
:1057300011B1012141627047002141628169B1FAD2
:1057400081F1C1F11F0101EB81020E4951F82230B4
:105750006BB101EB820101F108034A6852684A60AB
:105760009A4201D152684A60D16801607047502066
:1057700080F31188BFF34F8FBFF36F8FFEE70000F8
:1057800034000020880500201CB5264908780190C7
:10579000FF20087008788DF800009DF800009DF843
:1057A000002000F0F000904207D0502080F31188D4
:1057B000BFF34F8FBFF36F8FFEE79DF800001A4BCA
:1057C00000F0500018700720986005E09DF8002058
:1057D00052008DF80020401E9DF800201206F5D4DE
:1057E0009860032807D0502080F31188BFF34F8FB3
:1057F000BFF36F8FFEE74FF4407098600198087018
:105800000A48016841F470010160016841F070418B
:105810000160FFF715FF00205860FAF7CBFC00206D
:105820001CBD000000E400E08800002020ED00E046
:1058300010B5502080F31188BFF34F8FBFF36F8FE7
:1058400000F072F818B104494FF080500860002051
:1058500080F3118810BD000004ED00E02DE9FF5F2A
:105860008346DDE90E87994616468A469000FEF784
:1058700001FE05001CD05420FEF7FCFD040014D0EE
:105880000020256384F85100CDE90240CDE900876E
:105890004B46324651465846FEF75AFD2046FEF723
:1058A00081FC012004B0BDE8F09F2846FFF79AFE76
:1058B0004FF0FF30F6E7F0B585B0DDE90B640A9DE7
:1058C000A6B1DCB1542700972663022684F8516004
:1058D000002604AFCDE90246CDE90057FEF738FDBA
:1058E0002046FEF75FFC049805B0F0BD502080F321
:1058F0001188BFF34F8FBFF36F8FFEE7502080F307
:105900001188BFF34F8FBFF36F8FFEE70548C16962
:1059100019B1806B18B10020704701207047022038
:1059200070470000340000202DE9F0412E4C002784
:10593000A06B40B1206A401C2062606A00B1012760
:105940003846BDE8F0816669761C666113D16068EF
:10595000006838B1502080F31188BFF34F8FBFF338
:105960006F8FFEE76068A1686160A060A06A401C5C
:10597000A062FEF75BFD206BDFF87080864209D3E2
:105980006068006880B16068C068C5686868864201
:105990000DD220632068C06A00EB800158F8210016
:1059A0000128CAD90127C8E74FF0FF30F1E7281DC9
:1059B000FFF794FDA86A18B105F11800FFF78EFDF6
:1059C000E86A0121A26981401143A16100EB8001D5
:1059D00008EB8100291DFFF7C5FDE86A2168C96A47
:1059E0008842CDD30127CBE7340000208805002072
:1059F0002DE9F0472C4D00242746A86B38B1FFF75E
:105A0000BDFDA86B401EA863A86B40B146E05020C6
:105A100080F31188BFF34F8FBFF36F8FFEE72969C3
:105A2000224E0120D1B3A6F1B40980463068E8B116
:105A3000F068C46804F11800FFF750FD201DFFF75F
:105A40004DFDE06AAA6908FA00F11143A96100EB73
:105A5000800109EB8100211DFFF784FDE06A2968C0
:105A6000C96A8842E2D3C5F82480DFE70CB1FEF7AB
:105A7000DDFC2C6A44B14646FFF756FF00B16E626A
:105A8000641EF9D100202862686A38B108490127EC
:105A900038070860BFF34F8FBFF36F8FFFF78EFD9E
:105AA0003846BDE8F0870000340000203C060020A6
:105AB00004ED00E0491058BFC1F140415B1058BFF0
:105AC000C3F140438B42EFF30080704710F0004277
:105AD00048BF4042B0FA80F310FA03F10AD0C3F194
